:020000040800F2
:10000000D8090020D500000835400008B53A00089E
:1000100000000000000000000000000000000000E0
:100020000000000000000000000000005340000835
:10003000000000000000000051400008554000088A
:10004000E7000008E7000008E7000008E7000008F4
:10005000E7000008E7000008E7000008E7000008E4
:10006000E7000008B5160008E7000008E7000008F0
:10007000E7000008E7000008E7000008E7000008C4
:10008000E7000008E7000008E7000008E7000008B4
:10009000E7000008E7000008E7000008E7000008A4
:1000A000E7000008E7000008E7000008E700000894
:1000B000E7000008E7000008E7000008044885465C
:1000C00000F008FF0048004711540008C046C04631
:1000D000D80900200448804704480047FEE7FEE7AF
:1000E000FEE7FEE7FEE7FEE7F1400008BD0000087E
:1000F00030B50B46014600202022012409E00D46C0
:10010000D5409D4205D31D469540491B2546954047
:1001100040191546521E002DF1DC30BDF0B51FB45C
:100120000646002082B005464024019100901BE065
:10013000019922460F46304600F008FC049A059BC0
:10014000801A994110D310461946224600F0EEFB62
:10015000361A8F410197224601200021009F00F0AE
:10016000E5FB38184D4100902046641E0028DFDC76
:10017000019B00982946324607B0F0BD03460B4369
:100180009B0703D009E008C9121F08C0042AFAD24D
:1001900003E00B780370401C491C521EF9D27047D3
:1001A000D2B201E00270401C491EFBD2704700220F
:1001B000F6E710B513460A4604461946FFF7F0FF66
:1001C000204610BD421C0178401C0029FBD1801A3A
:1001D000704710B5002200E0521C835C8C5CA34287
:1001E00001D1002BF8D1D8B2E1B2401A10BD0346BC
:1001F0000A780270401C491C002AF9D11846704741
:1002000070B5104D002800D12868002414E00A467B
:1002100002E09E4203D0521C1378002BF9D1DAB2CF
:10022000224307D0002B06D0002C04D000210170FF
:10023000401C04E00446401C0678002EE7D12860EC
:10024000204670BDD80000200FB400B58DB00990D5
:100250000B9010A900200091C0430A9000200C9040
:1002600006480690064807906A4609A80F9900F0CC
:1002700093FB0DB008BC04B018470000B909000892
:10028000D9090008FFB50027FF4383B000205C6850
:1002900001909E681D46A9697F1C049888470090BC
:1002A000296A88470028F6D10098401C0CD003200A
:1002B00040028443002E19DD600614D500982B28D7
:1002C00009D02D280FD103E00020C04307B0F0BDB6
:1002D000012080020443A9697F1C04988847761E88
:1002E0000090002E02DD0098302803D005980028E9
:1002F00025D035E0012040020443A969761E7F1C09
:10030000049888470090002E03DD782805D05828EF
:1003100003D00598002810D022E00598002801D0CD
:1003200010281DD1012040028443A969761E7F1C3C
:10033000049888470090102002E0082000E00A207E
:1003400005900DE0012149020C43059A0199761EA2
:10035000514308180190A9697F1C049888470090B0
:10036000002E05DD0599009800F001FB0028E9DA70
:10037000E96904988847A00502D40120C043A5E795
:10038000E00722D1600611D56005019800D54042F2
:1003900029680A1D2A600968220501D5087014E041
:1003A000220701D5088010E008600EE02868011DD2
:1003B00029600068210502D50199017005E0210737
:1003C000019901D5018000E0016038467EE7000018
:1003D000FFB5087889B01546FF2805D0491C2D289F
:1003E00004D00022002407E000240BE00122F9E7FA
:1003F0000A235C430419491C0878FF28F8D1002A15
:1004000000D06442002004902A7801462D2A01D0B1
:100410002B2A0FD16D1C2D2A02D00022049209E054
:100420000122FBE700260A2233466D1C00F041FA48
:10043000381871412F78FF2FF4D10C9AA218069228
:1004400002460A4304D0FF23069A9133DA4205DAC2
:10045000002109980A4606C00DB0F0BD0024B74A35
:10046000B54D2646079200F0D7FC029006980391FE
:10047000002801DA474200E0074639050020AF4A6C
:10048000001C51410191009012E0F80707D022466C
:100490002B463046079900F0DFFB064607912246BF
:1004A0002B461046194600F0D7FB04460D467F1038
:1004B000002FEAD10698019B0028009A0399029820
:1004C00006DA00F031FC3246079B00F02DFC05E017
:1004D00000F0C2FB3246079B00F0BEFB049A002AE4
:1004E00002D00122D2075140099A03C2B4E7FFB5F6
:1004F00091B0002009900025ED432E209E685C6895
:100500001F460190B9696D1C129888470090396A9E
:1005100088470028F6D10098401C0AD00D20C00161
:100520008443002E12DD00982B2809D02D280DD1F0
:1005300003E00020C04315B0F0BD01208002044359
:10054000B9696D1C12988847761E009003A9600552
:1005500001D52D2000E02B206A461073491C0CA801
:100560000F9102900AE0B9696D1C129888470090BB
:100570000120400204431398761E0560002E02DD20
:1005800000983028EFD001990098884246D1802009
:10059000044308E00998401E0990012040020443EA
:1005A0001399681C0860B9696D1C761E12988847FB
:1005B00000903028EED031E00199884205D1200624
:1005C00003D480200443761E1EE0009804F01CFB38
:1005D000002826D001204002044307A90F980331C8
:1005E000761E88420BD200980F99303808700F9809
:1005F000401C0F90200607D50998401E03E02006F6
:1006000002D40998401C0990A00502D51399681CD2
:100610000860B9696D1C129888470090002ECBDCE9
:1006200059E0002E57DD0098652801D0452852D1A9
:10063000A00550D5032000028443B9696D1C761EC5
:10064000129888470090002E0CDD2B2804D02D280E
:1006500008D1FF2001300443B9696D1C1298884706
:10066000761E0090E00501D52D2100E02B21029897
:1006700001700298401C0290019025E00120400288
:1006800004430EA902980131761E88420ED20098CA
:10069000029930380006000E087003D102990198C3
:1006A00081420AD90298401C029006E0E00501D57B
:1006B000234801E0224840420990B9696D1C129814
:1006C0008847009013980560002E04DD009804F020
:1006D0009BFA0028D2D1F969129888470F99FF2018
:1006E0000870029903AA087000200A900B900CA9C8
:1006F0000AA8099BFFF76CFEA00502D40120C043A5
:1007000019E72420044209D0E00713D138680B9A76
:100710000A99031D3B60006806C00BE00B990A981C
:1007200000F0BCFB0146E00704D13868021D3A60C6
:10073000006801602846FEE6000014400000F03F1B
:10074000F1D8FFFF70B5064604F090F9046805463D
:100750000A220021304600F051F92C6070BD02469B
:1007600070B54A40D30FDB0740002DD04A002AD095
:10077000010E140E000212020919400A520A8418CE
:10078000E50104465443000A120A2E045043A419FA
:100790004219200CC543AA18120C0125AD03521CA6
:1007A000521912047F39240400D0521C104301D482
:1007B0004000491EC2B20C06C0092018401C400867
:1007C000802A02D003E0002070BD400840000029CC
:1007D00000DA0020184370BD70B502464A40D50FBC
:1007E00040004A00ED0740085208002814D0002AB3
:1007F00012D0C40DD30D41020120C0055202490A96
:10080000520AE41A091812187D34914201D3641C6B
:1008100000E04900002C01DA002070BD0023914265
:1008200001D3891A0343400849000028F7D1002961
:100830000AD0914202D10121C90705E0914201D2BB
:10084000012101E00121C943E005C018401900F071
:100850000DF970BD10B500229623114600F00EF977
:1008600010BD410040020122400AD205090E801845
:100870007F2901DA00207047962903DC9622511A5D
:10088000C8407047963988407047C20FD207400071
:1008900040080BD0C10D0723DB01C9184002090530
:1008A000400A1143C2084007114370470020014627
:1008B0007047F0B51FB486B0002000900190029000
:1008C0000698069980B204900798090C0204001457
:1008D000114307900027089D099806913E463C4623
:1008E00003900398A9B20204000C039004982D0C05
:1008F000154348430021224600F018F8C7197141FA
:1009000010340E46402CECDB3846029A00F00EF80C
:10091000009A019B80180090594102980191103073
:1009200002904028CCDB00980BB0F0BD10B5202A17
:1009300004DB0146203A9140002010BD9140202365
:100940009C1A0346E3401943904010BD10B5202A7D
:1009500004DB0846203AD040002110BD0B46D340AE
:10096000D0402024A21A91400843194610BD3A28CD
:1009700000D23038202302469A43412A01D3104640
:100980003738884201D30020C0437047026813788B
:10099000511801601846704710B5D1600449516183
:1009A0000449116200211161114600F0C7FA10BD1F
:1009B0008D090008290F00084268002A08D0016844
:1009C0000B78491C002B03D0521E06C018467047F6
:1009D0000121C160881E70474268002A0BD0C3689D
:1009E0000168002B07D183688B4204D0491E521C3A
:1009F00006C0002070470020C0437047F7B5009C38
:100A00000F4600262578641C002D05D000F088FADA
:100A10000068405DC007F5D12B2D02D02D2D18D0D8
:100A2000641E39462046029A00F026FC002F04D0AE
:100A30003968A14201D10099396071050224002969
:100A40000BDA4042002803DD04F010F80460A00730
:100A5000FEBD012080020643E3E70028F8DA04F037
:100A600005F804600048FEBDFFFFFF7F002904DA9F
:100A7000401C490001D140084000704770B4002478
:100A8000050C05D11024000402D1002921D0112425
:100A9000050E01D100020834050F01D10001241D0B
:100AA000850F01D18000A41C002801DB4000641CDC
:100AB000002908D020252E1B0D46F540A14000D06E
:100AC00001212943084301061B1B000ADB1D02D537
:100AD000002070BC7047DB05181880180029F8DA70
:100AE000401C4900F5D170BC400840007047000030
:100AF000F0B507460846584087B0C00F049048003C
:100B00000E46590040084908BC1A884105D23846AB
:100B100031461E4617460B46024658004008104311
:100B20004DD0300D039040055900400D490D059002
:100B3000401A0290402873DA18030121000B0905BE
:100B40000843019004980092002806D01146019AAB
:100B500049420020904100910190029840210A1AD8
:100B600001990098FFF7E2FE05460C466B4607CB5D
:100B700000F0C2F9C0197141039A0E0D0023D71776
:100B800056401A467A40164344D0049A002A2DD083
:100B9000029A012A039A15DC1205C01A9141012616
:100BA0003605001C7141D20F059ED20700930192B9
:100BB00002962A46234600F0BFFB07B0F0BD384638
:100BC0003146FAE71605234A0F46B218C01AB74154
:100BD00001210905001C4F4100187F4111461818DA
:100BE0007941E20F10436D19644113E0E2076D088B
:100BF00015436408C2071443039A01261205C01A5C
:100C000091413605001C7141CE0740083043490828
:100C1000C01851412A46234600F081FBCDE7FFE78B
:100C2000049801224000C117121A00238B41049836
:100C30003146C417381AA141EEE730B40124E40765
:100C4000634030BC54E730B40124E407614030BC59
:100C50004EE700000000E0FFF0B51FB488B00B992C
:100C60000998002448400999C00F49004908099192
:100C7000C0070B990090490049080B910999089801
:100C8000A64608431CD00B990A98084318D0099827
:100C900001244000420D4800410D0998240500033D
:100CA000000B204309900B980003000B20430B908E
:100CB00050181C494018002201901446104605E0C7
:100CC000002001460DB0F0BD032801DA034600E024
:100CD00003239C46C11A0AAE0AE05F0008ADED5B33
:100CE0004F00F75B7D430027AA187C41491C5B1E1F
:100CF0006145F2DD410004AB5A522104120C0A4353
:100D0000240C401C0828DFDB0198029000997046F3
:100D100001910090059B049A0799069800F00CFB3E
:100D2000D0E700000DFCFFFFF0B50C465C4085B03D
:100D3000E40FE40703944C0000266408590094462D
:100D4000490802460296224321D062460A431ED039
:100D50006200570D4A000E032303550D012402467D
:100D60002C492405781B1B0B360B401823432643C4
:100D7000614600901C46501AB44103D30098401CB1
:100D8000009002E0921800985B41002803DA0020EE
:100D9000014605B0F0BD0020012109050746864641
:100DA00011E064461D46141BB54106D36546521B2F
:100DB000B341744607430C43A646CD074008490893
:100DC000284392185B4105460D43EAD1104618436B
:100DD00013D06046194650407140084306D0604623
:100DE000101AB34106D20122002306E0002201239B
:100DF000DB0702E00122D24353100098744601053C
:100E0000381C6141029C039D0019694100F087FA7A
:100E1000BFE70000FD0300000EB5054A0292002264
:100E200000921346019200F087FA03B000BD000063
:100E3000330400004A0009030123090B1B05194371
:100E40000A4B10B5520D9A4202DA0020014610BD3D
:100E5000064B34339A4203DC9A1AFFF777FD10BD34
:100E6000034BD218FFF762FD10BD0000FF03000026
:100E7000CDFBFFFF10B5002904DB0124E40740424D
:100E80008C412146002B04DB1C460123DB07524228
:100E9000A341994200D1904210BD0000CB0FDB0767
:100EA000490010B5490802460A4307D00A0D072435
:100EB0000903E401090B121B002A01DC002010BD0C
:100EC000C900440F0C43C100E018D2058018FFF799
:100ED000CDFD10BD064C0125064E05E0E36807CCAC
:100EE0002B430C3C98471034B442F7D3FFF7EAF891
:100EF000045B0008245B000810B5202A06DBCB1732
:100F00000846203A1041C1170B4306E00B46134137
:100F1000D0402024A21A91400843194610BD000079
:100F200000487047005B000810B50446FFF7F8FF63
:100F30000068005DC007C00F10BD0000F3B58DB0A4
:100F400000200A9001200B90002608460C300C4629
:100F500009906269012109989047051E2ED0252D20
:100F60002DD0216A8847002818D06269012109988C
:100F70009047216A88470028F7D1411E6269099885
:100F8000904700E0761CA1690D988847216A884740
:100F90000028F7D1E1690D988847DAE7A1690D9833
:100FA00088470746A84201D1761CD2E7E1690D982F
:100FB00088477F1C02D10A98002877D04AE1002791
:100FC00062693D463946099890472A280CD16269E2
:100FD000012109989047012506E00A214F433F1857
:100FE000303FEBD4102005436269012109989047F6
:100FF000014630390A2903D29C498F42DEDCECE7F6
:10100000E90600D49A4F6C280AD04C2810D06828E2
:1010100024D06A282ED074280CD07A280AD00DE06B
:1010200062690121099890476C2823D004211CE0B3
:10103000202005436269012109989047A7606560F7
:1010400065284FD026DC582839D01ADC452849D0ED
:1010500012DC252834D04128B0D143E06269012157
:1010600009989047682802D008210D43E6E701203F
:10107000C002DEE70220DCE7462833D047282CD127
:1010800030E05B2870D061282CD063286CD06428B5
:1010900023D161E06F284FD009DC662822D0672871
:1010A00020D0692826D06E2817D12EE0CEE07028F7
:1010B0004DD073286FD075284ED078280DD154E0CC
:1010C000A1690D9888470546252800D16CE7E1699C
:1010D0000D9888476D1C00D16DE7BBE00A224CE0FB
:1010E0000A2252E0012023466A46C0430D99FFF7C9
:1010F000FEF9A4E02846402108436060A807234683
:1011000001D5002239E000223FE0E80700D020E7C7
:101110002068011D21600068290501D5067018E7C7
:10112000290701D5068014E7A90703D5F117066042
:1011300041600EE706600CE72846402108436060E6
:10114000A807234601D5082217E008221DE04949D7
:1011500028460840606016E0284640210843606049
:10116000A8072346BCD5B9E715E028464021084327
:101170006060A80707D5234610220120C0430D99BF
:10118000C046C0465BE0234610220120C0430D99B3
:10119000FFF778F853E000210C910B46009163288B
:1011A00002D05B2808D044E02079C00601D4012099
:1011B000A060012000903CE06269012109989047FD
:1011C0005E2805D101200C9001466269099890477C
:1011D0002169002906D10B4601AA8F00491CD35171
:1011E0000829FADB002835D0216900290ED1C11762
:1011F000C90E09184A11930001AA9A184909490110
:10120000411A012013688840034313606269012179
:10121000099890475D28E5D10C98002808D0002057
:1012200001AB81005A58401CD2435A500828F8DBC1
:1012300001AB01202246C0430D99C046C04600289C
:101240000ADA401C06D10B98002803D00020C043C6
:101250000FB0F0BD0A98FBE7E90702D10A99491CD3
:101260000A91361800200B9073E60000CCCCCC0C11
:10127000FFFFFF7FF1F7FFFFF7B582B0029C002769
:101280002078641C15460197302802D0002D15D017
:1012900015E020780127641C782804D0582802D053
:1012A000002D09D00BE0002D01D0102D07D1002713
:1012B00010252078641C02E0082500E00A2500269D
:1012C000009610E00099012769430818020C29468E
:1012D00080B2714300908E183804864201D30120F9
:1012E00001902078641C2946FFF741FB0028E9DAC9
:1012F0000398002805D0002F01D0641E00E0029C56
:1013000004600198002806D003F0B0FB02210160C0
:10131000C81E05B0F0BD009930040843F9E710B5C8
:10132000002B08DA0024401C614192185B411A43EB
:1013300001D14008400010BDF0B51FB482B0054691
:101340000C0003D0084603F04BFB02E003F048FB1F
:1013500020300246009021462846FFF7E7FA049B1A
:10136000059A04460F4618431143084314D0184603
:1013700010431BD0009840210A1A18460599FFF720
:10138000E5FA05460E46009A05990498FFF7CEFA4D
:10139000084305D0012004E02046394607B0F0BDDF
:1013A0000020C11705430E432C43374300990E9884
:1013B0006305401A7905E40A00220C43FD0A0A304D
:1013C00002D500200146E9E70105101969410C9C8E
:1013D0000D9D00196941FFF7A2FFDFE770B50446D4
:1013E000006802F09EFC002820D0206881688907F0
:1013F000C90F04D181680E4A11401031816001F09B
:101400009DF805460EE001F099F8401B022809D925
:10141000A06D10210843A065E06D01210843E0653F
:10142000084670BD206880684007ECD4002070BD7D
:10143000E8FFFF7F10B5846AA16D502211420DD1E3
:10144000A06D012149020843A065206802F06DFCEF
:1014500000281BD0A07E002807D017E0A16DC90688
:1014600024D5204600F094FA10BD206801680907D1
:101470000CD502F056FC0146012000290AD0A16DCE
:1014800020221143A165E16D0143E165204600F092
:101490007DFA10BD21684A680C239A434A60A16D09
:1014A000FF22013291430143A165EFE7216D496BB2
:1014B000884710BD10B5806A816D40221143816557
:1014C000C16D04221143C16500F062FA10BD10B570
:1014D000806A00F05CFA10BD0A4610B50146024869
:1014E00000F05EFC10BD00001C02002010B5024898
:1014F00000F0CFFC10BD00001C020020F8B504462F
:10150000006881688907CD0F02F007FC002826D00B
:10151000002D24D120688168052211401025012664
:10152000012910D181680F4A1140891C816021680E
:101530000320086001F002F807460CE000F0FEFF0F
:10154000C01B022807D9A06D2843A065E06D304379
:10155000E0650120F8BD20688068C007EED100205A
:10156000F8BD0000E8FFFF7FF8B5044600200090BA
:10157000206802F0D2FB002840D120688168204A10
:101580001026114000292BD18168D5432940491CE0
:1015900081601C48006807218905084000020AD5BF
:1015A0001A4819490068FEF7A3FD401C00E0401EE0
:1015B00000900028FBD1607E01281FD000F0BEFF04
:1015C000074616E002F0A9FB002804D120688168D4
:1015D0002940491C816000F0B1FFC01B022808D9D6
:1015E000A06D3043A065E06D01210843E065084629
:1015F000F8BD20680168C943C907E3D10020F8BDE0
:101600001700008008270140400D0300D40000208F
:1016100010B50446074800F08FFB2146054800F04E
:101620002BFB0028034802D000F014FCF2E700F086
:10163000B0F910BD1C02002010B5024800F07CFB80
:1016400010BD00001C02002010B50021014800F070
:10165000E7FC10BD7403002010B5044600F01AF832
:1016600009492046FFF7B8F80849FFF778F8FFF76F
:10167000F8F8C4B200F016F8234608220021044806
:1016800000F016FD10BD00000000404000007F4348
:101690007403002010B50021014800F017FD10BDB3
:1016A0007403002010B50021014800F03EFD10BD7C
:1016B0007403002010B5024800F07EFD10BD00004C
:1016C0008002002010B50446006C094980088000A3
:1016D00040186064207814210838FEF709FD044999
:1016E0008031A164C106C90E01208840E06410BDAC
:1016F000000802400179084B8906890E8A00D21839
:101700000265054A4432491E42658A07920F01214B
:101710009140816570470000FC080240F0B5846C80
:10172000C56C6560046D002C02D0446D856D6560EC
:101730000B4C6568066C1C273E400127B7403D43B3
:101740006560046863608368102B036803D0996048
:101750000068C260F0BD9A600068C160F0BD000022
:101760000000024072B6FEE7F8B5002706460446C0
:1017700040360097307D0D4601280FD0012030758E
:10178000206802F0CEFA00280AD0A06D202108437C
:10179000A0650127002030753846F8BD0220F8BD4D
:1017A000686802287ED001222169D207914202D0C6
:1017B000121D914206D120682968826A4903490BAB
:1017C0000A436EE0C206D20E0F20216E9040814384
:1017D0002868430302D0C3074BD102E04000C00E8B
:1017E00048E0830701D5012044E0430701D50220EA
:1017F00040E0030701D503203CE0C30601D50420E7
:1018000038E0830601D5052034E0430601D50620E3
:1018100030E0030601D507202CE0C30501D50820E0
:1018200028E0830501D5092024E0430501D50A20DD
:1018300020E0030501D50B201CE0C30401D50C20DA
:1018400018E0830401D50D2014E0430401D50E20D7
:1018500010E0030401D50F200CE0C30301D51020D4
:1018600008E0830301D5112004E0400301D51220D4
:1018700000E000209040014321666968E269880821
:10188000401C904210D820682B68826A9C46C9068A
:10189000C90E0F238B409A4363469B001B0F8B405E
:1018A0001A4300E03BE082622168AB6828684A691D
:1018B0000002824318404001400902434A612868FF
:1018C000002800DB66E72B4A116807239B051940B7
:1018D000294B984214D10B0212D4C0020143104686
:1018E00002F02BFA264825490068FEF701FC0C217E
:1018F0004843401C00E0401E00900028FBD149E70F
:10190000204B984203D1CB0101D4800205E01E4B4D
:101910009842D7D14802D5D45802014325E001218D
:101920002069C907884202D0091D884206D1206873
:101930002968826A4903490B8A4382622868002821
:10194000C0DA0C4A116807239B0519400A4B9842DC
:1019500001D1C00208E00B4B984201D1800203E0A4
:10196000094B9842AED140028143104602F0E5F99E
:1019700010E7000008270140001000B0400D0300F0
:10198000D4000020004000B8002000B47047704729
:1019900070470068006C7047FEB5002704463E465D
:1019A00001970097002803D0A06D002802D008E01E
:1019B0000120FEBD204600F015F90020E06554210D
:1019C000085520688168C900C90F11D181687C4A17
:1019D000114001221207114381607B487949006858
:1019E000FEF786FB400000E0401E00900028FBD17F
:1019F00020688168C900C90F08D1A16D1022114368
:101A0000A165E16D01221143E165174602F089F9F4
:101A1000A16DC90601D4002804D0A06D102108438F
:101A2000A065CAE0A06DFF2101318843022108436F
:101A3000A065206802F071F9014620462030002997
:101A40002FD12268D16818239943A3681943D16024
:101A5000626C216C636811439B0FA26C9B071A4355
:101A60001143E26C11430E43017F012900D10E4363
:101A700022681169554B1940314311610322616895
:101A8000920791420DD05A0791420AD052009142DA
:101A900007D04F4DAB680F229204934311400B4384
:101AA000AB60217E8D03617EC9030D43A17E4A0395
:101AB0001543226B002A01D0012212031543E2686C
:101AC00015432269002A02DA5200520801E001227D
:101AD00052051543027B007852001543019A1543C5
:101AE000012809D1002955D0A06D20210843A06507
:101AF000E06D01210843E065606A002806D0FF22FE
:101B0000C1321040A16A28430D4605432168C868C8
:101B1000304A10402843C860216808692E4A1040A6
:101B2000304308610021626B206802F00DF92B49F7
:101B3000A26B206802F008F90F212069C943002830
:101B40002CD001225205904216D1226E0020830033
:101B50001646DE40F3431B0702D0401C0828F6D38C
:101B600001281BD02068836A237F9B001B1FDB0694
:101B7000DB0E9940114381622068C0681849084013
:101B8000A84210D10020E065A06D80088000401CB4
:101B9000A06513E0012000040543ADE72068826AD8
:101BA0000A438262E8E7A06D0221884310210843BE
:101BB000A065E06D01210843E06501273846FEBDC0
:101BC000E8FFFF7F400D0300D400002002FCFF1F50
:101BD000002701401902FEFF02FCFFDF04FFFF07A0
:101BE000E7FF3F8370B586B0054614216846FEF7CF
:101BF000DEFA1D492868884234D11C480268012158
:101C000009050A43026000680840059017484038FB
:101C1000426B01210A434263406B009108400590EA
:101C2000032001900026052069460296000700F077
:101C3000C9FB104C0E482060A6600520E66060607D
:101C400080202061400060618000A0612020266229
:101C5000E061204600F00CFB002801D0FFF782FD78
:101C60002C65A56206B070BD002401404010024002
:101C70000800024080020020F8B5044640690D4685
:101C8000082809D02068C068C00707D0A06D2021AF
:101C90000843A0650120F8BD082600E0042600F0F6
:101CA0004DFC074608E0681C06D000F047FCC01B4E
:101CB000A84214D8002D12D0206800683042F2D01B
:101CC000A06D012149020843A065206802F02DF8AB
:101CD0000C2500281CD0A07E002809D018E0A06D9B
:101CE00004210843A0650020403420750320F8BD7E
:101CF0002068016809070BD502F013F801210028BC
:101D00000AD0A06D20221043A065E06D0843E06575
:101D1000207E00280BD00CE020684268AA43426075
:101D2000A06DFF22013290430843A065F0E72068D0
:101D300005600020F8BD000070B50446006801F0A1
:101D4000F0FF002802D00221084670BD254640352C
:101D5000287D01280AD0012028752046FFF704FCC1
:101D600001460020002903D02875EDE7022070BD50
:101D7000A26D094B1A40FF2301331A43A265E065A7
:101D800023681C221A60287520688268034B1A4059
:101D9000121D8260D8E70000FEF1FFFFE8FFFF7F21
:101DA000F7B50446006801F0BCFF002845D1254680
:101DB0004035287D012840D001272F752068C16853
:101DC0001F4EC9070CD101F0A8FF002804D02068DD
:101DD00081683140891C81602068C1683943C160D5
:101DE0002046FFF7C1FB002826D1A06D1549084009
:101DF000FF2101310843A0650020E065226D1249F2
:101E0000D162226D11491163226D1149516322681B
:101E10001C2111602875206841681022114341601F
:101E20002168206D4031029B019A00F073FA21680D
:101E30008A683240121D8A60FEBD0220FEBD00008D
:101E4000E8FFFF7FFEF1FFFF35140008CF14000804
:101E5000B514000870B5054604464035287D0128B4
:101E600007D001262E752046FFF7B8FA002802D0C9
:101E70000CE0022070BD2046FFF740FB002805D192
:101E8000A16DFF22013291433143A16500212975E3
:101E900070BDF8B5064604464036307D012807D0AF
:101EA000012737752046FFF799FA050002D028E090
:101EB0000220F8BD206D2521095C022907D100F020
:101EC00041F9050003D0A06D40210843A0652068BA
:101ED0004168102291434160002D204602D0FFF757
:101EE0000DFB09E0FFF70AFB050005D1A06DFF21FE
:101EF000013188433843A0652068C168490849001A
:101F0000C160002030752846F8BD0000F8B50446D1
:101F1000407900270E4601280AD001206071022076
:101F200020711021154630680D40042802D03FE092
:101F30000220F8BD002A1FD100F000FB074604E094
:101F400000F0FCFAC01B01280FD82068406B000489
:101F5000F6D4012000F024FA2168B069086415E085
:101F600000F0ECFAC01B012806D9206908210843BB
:101F7000206103202071F8BD2068406B0028EFDB52
:101F8000012000F00DFA2168B06948642168886C6E
:101F9000214AAA409043F269AA401043886421680C
:101FA000C86CFF22AA409043326AAA401043C8641A
:101FB0003069012808D12268916B1F20A840814315
:101FC0007069A840084390632268D06B0721A9403C
:101FD0008843B36831681943F3681943A940014342
:101FE000D1632068026801218903A9408A43026005
:101FF000226811680948A84081437068A8400843D6
:10200000106020680168C022AA409143016001204D
:10201000207100206071F8BDFF030000FE0F00007A
:102020000068002901D0006B7047C06A704770B526
:10203000040004D020790025002802D005E001200A
:1020400070BD6571204600F007F8022020712561FF
:1020500001202071002070BD10B586B00446142107
:102060006846FEF7A4F810492068884219D10F4845
:10207000C26B41040A43C263C26B0A400592416BC2
:10208000012211434163406B6946104005901020C6
:10209000009003200190002002900520000700F02E
:1020A00091F906B010BD000000740040001002401D
:1020B00018B50468009400688018002904D0143012
:1020C00000900360002018BD0830F9E7F0B54279B0
:1020D000012A1ED00123437102220271046825687F
:1020E00010260E401F46B7403D432560002912D000
:1020F000046825681F267604354016468E40B54292
:1021000002D1616811436160037100214171084689
:10211000F0BD0220F0BD01680A689206D20E012AC5
:10212000F2D14A681A434A60EEE730B50268146893
:102130001023194001231D468D40AC4314600371E8
:10214000002030BDF0B5002808D0014620314A7982
:10215000022A05D00422C263002008710120F0BDCC
:10216000026813680E24A3431360426C1468FF23B3
:1021700001339C43146002681468640864001460AE
:102180000C4A5568066C1C24264001242746B7409B
:102190003D435560826CC56C5560026D002A05D0C8
:1021A00015689D431560826D406D42604C71002042
:1021B0000871F0BD00000240F0B42C490C680268C0
:1021C0001368056C1C273D400426AE40264211D002
:1021D0005E070FD513689B0603D4146804239C4341
:1021E00014604B68046C04223C40A24013434B60D3
:1021F000016B1CE00227AF40064627402036002F27
:1022000019D09F0717D513689B0605D413680A24B5
:10221000A3431360012272714B68046C1C221440AA
:102220000222A24013434B6000213171C16A002990
:102230001AD0F0BC08470827AF40274214D01B072C
:1022400012D513680E24A34313604B68046C1C2240
:10225000144001221546A5402B434B60C2637271A6
:1022600000213171416BE2E7F0BC70470000024091
:1022700070B504003FD02548256814212818FDF7C3
:1022800037FF8000206402202646203670712868BF
:102290001F4908402860E168A06862690843216915
:1022A00011430843A1690843E1690843216A0843CF
:1022B00021680A68104308602046FFF703FA0121ED
:1022C000A06889030025884200D165602079616C8F
:1022D0008006800E0860A06CE16C41606068401E62
:1022E00003280AD82046FFF705FA206D0560606DC7
:1022F000A16D416004E0012070BD25656565A5659F
:10230000E563012070713571002070BDF8FFFDBFDD
:102310000F80FFFFF8B504468C4620300179002578
:1023200001290BD00126067141790027012907D028
:102330008021E163077101252846F8BD0220F8BD20
:1023400002214171E7632068016849084900016082
:1023500061462046FFF7E2F9206B002820680168FB
:1023600001D00E2205E0042291430160206801683B
:102370000A2211430160606C0168CA03074902D553
:1023800002680A430260206D002802D002680A43F6
:1023900002602068016831430160CDE70001000060
:1023A00070B5044600F0CAF80546601C02D0044827
:1023B0000078241800F0C2F8401BA042FAD370BD88
:1023C000C8000020FCB5002301259AE022462C46D7
:1023D0009C4022406FD04E68012E05D0022E03D0C3
:1023E000112E01D0122E16D186680327B4465E0046
:1023F000B646B7406646BE43B446CF687646B74059
:102400006646374387604668A6430C79E406E40FC6
:102410009C4034434460C6685F000324BC40A4462B
:10242000A6438C68BC403443C4604C68022C01D085
:10243000122C14D1DC08A40024180194266A5C072D
:10244000B646E60E0F24B44000967646A643B6463E
:102450000C69009EB44076462643019C26620468BF
:102460006646B4430E79B607B60FBE4026430660F3
:102470004C68E40044D59E08254CB6003419A446A7
:10248000246E9E07F60E0F27B740BC4305273F0773
:10249000B84201D1002710E01E4FB84201D10127F8
:1024A0000BE01D4FB84201D1022706E01B4FB84296
:1024B00002D1032701E023E00527B7402743644604
:1024C0002766134E803634684F689443FF0300D567
:1024D0001443346074684F689443BF0300D51443B9
:1024E00074600B4C26684F689643FF0200D5164374
:1024F000266066684F689643BF0200D51643666043
:102500005B1C0A681446DA4000D05FE7FCBD00009F
:10251000001802400004005000080050000C005059
:10252000426913460B401B0491430B438361704780
:10253000002A01D08161704781627047014880683C
:1025400070470000C800002070B502464032537842
:10255000202B1CD11378012B19D0012313702424B4
:102560005470046825689D432560046825681E032F
:10257000B5432560046825680D432560006801683F
:1025800019430160202050700020107070BD02209F
:1025900070BD70B5024640325378202B1BD11378A2
:1025A000012B18D0012414702423537003681D6874
:1025B000A5431D6005682B680F263602B343090248
:1025C0001943296000680168214301602020507090
:1025D0000020107070BD022070BD000070B50400B6
:1025E00006D02546403568780026002802D005E050
:1025F000012070BD2E70204600F09AF924206870EA
:10260000206801684908490001600F2160680906D7
:1026100088432168086121688A680120C0038243D9
:102620008A60E1680129A16808D021229202114341
:1026300022689160E168022902D005E00143F7E7D2
:1026400001212268C902516021684A680F4B1A4370
:102650004A602168CA688243CA6061692069084388
:10266000A169090208432168C860216AE06908433A
:1026700021680860206801680122114301606664D6
:10268000202068702663AE70002070BD00800002BC
:10269000FFB5054604464035687883B0202875D1DB
:1026A0000C98002814D00D98002811D02878012803
:1026B0006CD001202870FFF741FF074601220090EF
:1026C0001923D103204601F0B3FA002874D103E0A6
:1026D0000120400260646FE0222068704020A870F2
:1026E000002666640C9860620D98608566630E989B
:1026F0000090019704A90EC9204601F025FA002890
:1027000001D02E7058E0618D3448FF2905D9FF2291
:10271000228501231B06009006E0618D2185009033
:10272000208D0123C2B25B062046049901F06CFAA9
:1027300000970022042120460E9B01F079FA002820
:102740003AD12068406A616A0870606A401C606221
:10275000208D401E81B22185608D401E6085608D78
:1027600000281FD000291DD100970022802120467B
:102770000E9B01F05DFA00281ED1608DFF2806D95E
:10278000FF22228501231B06009607E024E0608DCE
:1027900020850096208D0123C2B25B062046049955
:1027A00001F032FA608D0028C2D13A4620460E99D7
:1027B00001F065FA002802D0012007B0F0BD2068C2
:1027C0002021C16120684268054B1A40426069704F
:1027D000AE702E700020F0E70220EEE700240080AB
:1027E00000E800FEFFB5054604464035687883B032
:1027F000202872D10C98002814D00D98002811D0F0
:102800002878012869D001202870FFF797FE074635
:10281000012200901923D103204601F009FA002873
:1028200071D103E00120400260646CE021206870F7
:102830004020A870002666640C9860620D98608540
:1028400066630E980090019704A90EC9204601F016
:10285000ABF9002801D02E7055E0608DFF2805D916
:10286000FF22228501231B06009606E0608D20854D
:102870000096208D0123C2B25B062046049901F028
:10288000C3F93A4620460E9901F01FFA00283AD1C2
:10289000606A216800788862606A401C6062608DAE
:1028A000401E6085208D401E80B22085618D0029EC
:1028B0001FD000281DD100970022802120460E9BAA
:1028C00001F0B6F900281ED1608DFF2806D9FF223D
:1028D000228501231B06009607E024E0608D2085F9
:1028E0000096208D0123C2B25B062046049901F0B8
:1028F0008BF9608D0028C4D13A4620460E9901F02C
:10290000BEF9002802D0012007B0F0BD20682021C8
:10291000C16120684268054B1A4042606970AE7020
:102920002E700020F0E70220EEE7000000E800FE35
:1029300010B586B0044614216846FDF738FC1249EC
:10294000206888421ED1114C616B022001436163F3
:10295000616B01400320059100020090122001905C
:102960000120029000200390062004906946084848
:10297000FFF728FDE16B012040050143E163E16BB6
:102980000140059106B010BD005400400010024007
:1029900000040050024881680278891881607047FD
:1029A000C800002010B508480024016882151143B2
:1029B0000160204600F00AF8002801D0012401E05F
:1029C00000F028F8204610BD0020024070B50F4EE0
:1029D000002431780546002915D07D20C000FDF780
:1029E00087FB01460A480068FDF782FB00F05AFCAD
:1029F000002808D1042D06D200222946401E00F0EE
:102A00002FF8756000E00124204670BDC80000204A
:102A1000D400002008B50B48016801221143016071
:102A200000681040009007484038C26B01040A4318
:102A3000C263C06B084000900320400200F028FCF5
:102A400008BD000040100240002805DBC106C90E89
:102A500001208840014908607047000000E100E063
:102A600010B501F0E1FF10BD10B50F4C2168032235
:102A70005202914301432160C11FFF39FA390ED13F
:102A80000A480621006848430949FDF731FB401C0C
:102A900002E0002805D0401E61694905F9D40020F4
:102AA00010BD032010BD000000700040D4000020C5
:102AB00040420F00FEB5044600680027704D714E7D
:102AC000800355D500200090F06BC00007D4F16B57
:102AD000A8050143F163F16B0140012000906A48B1
:102AE0000168821511430160FFF728FD019005E0A0
:102AF000FFF724FD0199401A022825D86248006892
:102B0000C005F5D5E8690321090208400FD0216B03
:102B100081420CD0E86903210902EA698843012156
:102B200009040A43EA61EA698A43EA61E861C00785
:102B30000FD0FFF703FD019008E0FFF7FFFC0199BC
:102B4000411A5248814201D9032709E0E869800708
:102B5000F3D5E869032109028843216B0843E86142
:102B60000098002804D0F16B012000078143F16335
:102B70002078C00705D06869616880088000084334
:102B800068612078800705D568690C218843A168B1
:102B9000084368612078C00606D568690321890268
:102BA0008843E168084368612088800506D5686924
:102BB000032189048843A16908436861208840058E
:102BC00006D56869032109058843E16908436861FE
:102BD0002078800606D568690321090388432169A6
:102BE00008436861208840040ED56869216A800026
:102BF0008008084368610121206A8907884203D15F
:102C0000F06889130843F0602068000305D56869FF
:102C100040218843616A08436861206881021C483A
:102C20000BD569698210A36A914319436961A16A4E
:102C3000914202D1F1680143F160216849020AD54D
:102C40006969E26A814311436961E16A814202D1A3
:102C5000F1680143F160208800050FD56869032100
:102C600089038843616908436861012160698903B8
:102C7000884203D1F06889000843F0603846FEBD01
:102C80004010024000100240007000408813000015
:102C900000000001F8B50F46060043D04D4D2868EE
:102CA0004007400FB84213D22868C008C00038431C
:102CB0002860FFF743FC044605E0FFF73FFC011BDB
:102CC0004548814261D828684007400FB842F4D196
:102CD0003068424C81070DD5400704D5A068072114
:102CE00009030843A060A0680F2109028843B16866
:102CF0000843A0603078C00732D0706801280AD03D
:102D000002280BD000280FD03449403103280ED0C0
:102D1000C969890704E02168890301E02168890104
:102D2000002906DB0120F8BD21684905F8E7096A9A
:102D3000EFE7A168C908C9000143A160FFF7FEFBE6
:102D4000009006E0FFF7FAFB0099411A2248814201
:102D50001BD8A068382108407168C9008842F1D1A9
:102D600028684007400FB84217D91A480168C908B7
:102D7000C90039430160FFF7E1FB054607E0FFF7B3
:102D8000DDFB411B1448814201D90320F8BD1148E5
:102D900000684007400FB842F1D13078400706D5AF
:102DA000A068072109038843F1680843A06000F088
:102DB00031F8A1683C2289091140094A515CC906D1
:102DC000C90EC8400749086007480068FFF7FEFDC4
:102DD000F8BD0000002002408813000000100240EF
:102DE0001C5A0008D4000020CC00002006480749E7
:102DF00000688968064A4904490F8900515CC90680
:102E0000C90EC84070470000D400002000100240E6
:102E10005C5A000810B5204CA068204A8006400F7C
:102E200016D0A0688006410F501001290FD0A1686C
:102E30008906490F022912D0A0688006400F042895
:102E400023D0A0688006400F032821D0002010BDA9
:102E5000206801218004400F8140104612E0E168A3
:102E60008B07E1689B0F4906490F491C032B00D0D3
:102E70001046FDF73DF9E1684904490E4843E16811
:102E8000490F491CFDF734F910BD0120C00310BDE6
:102E90007D20000210BD0000001002400024F4005C
:102EA000F8B504007ED020783827C007EF4D002801
:102EB00046D0A868E96838408907890F102802D0F1
:102EC00008280BD001E0032908D001206268000423
:102ED00082420AD129680143296015E028688003ED
:102EE0002ED560680028DDD02AE0052301211B04CF
:102EF00089049A422A6802D10A432A60EAE7824397
:102F00002A60286888432860606800280CD0FFF792
:102F100015FB064604E0FFF711FB801B642873D8FD
:102F200028688003F7D50BE0FFF708FB064604E0AE
:102F3000FFF704FB801B6428F1D828688003F7D4CE
:102F40002078800769D5A868E96838408A07072192
:102F5000920FC902102802D0002813D001E0022AE3
:102F600010D0E068002846D02868884321690843CB
:102F700028602868FF21013108432860FFF7DEFA46
:102F800006462CE02A68520502D5E268002A89D05C
:102F90006A687F231B029A4363691B021A436A60B3
:102FA000002800E08DE00ED128688843216908439D
:102FB0002860286801218004400F8140AC48FDF75B
:102FC00097F8AC490860AC480068FFF7FFFC0028A0
:102FD00077D122E0FFF7B2FA801B02289FD8286839
:102FE0004005F7D568687F210902884361690902B5
:102FF0000843686011E02968FF200130814329609F
:10300000FFF79CFA064605E098E0FFF797FA801B69
:10301000022884D828684005F7D42078974E000706
:103020002ED5A8688006400F03280AD0A069002882
:10303000306A16D0012108433062FFF77FFA074655
:103040000BE0306A80071BD5A06900289FD017E0ED
:10305000FFF774FAC01B022870D8306A8007F7D5D2
:103060000EE0400840003062FFF768FA074604E0CF
:10307000FFF764FAC01B022860D8306A8007F7D4D3
:10308000207840076CD5A86800278006400F0428E8
:1030900018D0E86BC00008D4E96B01200007014399
:1030A000E963E96B01400127009175480168C90592
:1030B00019D40168821511430160FFF73FFA0090AF
:1030C0000DE083E0F06980074AD5A06800287DD034
:1030D00046E0FFF733FA0099401A02282ED86848D4
:1030E0000068C005F5D5A168012910D00420052984
:1030F000F16911D049084900F161F1698143F16139
:10310000A068002816D0FFF719FA00900EE0F069C9
:1031100001210843F061F3E70143F161F7E7FFF7AD
:103120000DFA0099411A574881426FD8F06980071B
:10313000F5D50EE0FFF702FA009007E066E0FFF732
:10314000FDF90099411A4F4881425FD8F069800724
:10315000F5D4002F04D0E86B012109078843E86308
:10316000E06900287FD0A9688906490F022953D059
:1031700001263606022828680DD0B0432860E8688A
:1031800080088000E860E8683F490840E860FFF791
:10319000D5F904463CE0B0432860FFF7CFF9074675
:1031A00004E0FFF7CBF9C01B02282FD82868800164
:1031B000F7D4616A206AA26A0843E16A12021143E5
:1031C0000843216B0843616B084300E049E0E9686C
:1031D0002E4A11400843E860286830432860E868B8
:1031E000012109070843E860FFF7A8F9044604E055
:1031F000FFF7A4F9001B022808D828688001F7D53A
:1032000031E0FFF79BF9001B022801D90320F8BD2C
:1032100028688001F5D426E00128F8D0E868226A01
:103220008107890F91421CD17021626A014091424D
:1032300017D17F21A26A090201401202914210D1E6
:103240001F214904E26A014091420AD1072149063F
:10325000226B0140914204D1400F616B40078842CC
:1032600001D00120F8BD0020F8BD00000010024090
:103270000024F400D4000020CC00002040100240C4
:103280000070004088130000FFFFFEEE8C80C1112B
:1032900003490A6803235B029A4302430A607047AA
:1032A00000000140094910B5401E884201D90120A3
:1032B00010BD074C60610321081F01F0B5FB002021
:1032C000A06107202061002010BD0000FFFFFF006B
:1032D00000E000E0F0B5034620331A7F012A2BD02E
:1032E00001221A7702225A7704686268A568134F90
:1032F000BC4205D116460F22120596434A68324356
:103300007026B2430E68164366600068B84209D062
:1033100001229207904205D0094A904202D0094A00
:10332000904204D18022896895432943816001201D
:10333000587700201877F0BD0220F0BD002C014026
:10334000000400400040014070B5040005D025464F
:103350002035687F002802D006E0012070BD0020E3
:103360002877204600F016F802206877211D206893
:1033700000F0CCFE012240342272AA77EA77227054
:103380006270A270E27022716271A271E2716A775A
:10339000002070BD08B5006801218907884207D167
:1033A0000A48C16B01221143C163C06B10400BE09E
:1033B0000749884209D10548403002680121490483
:1033C0000A43026000680840009008BD00100240F7
:1033D0000044014070B5054604462035287F012889
:1033E00017D001262E7702206877226890682E4B2E
:1033F0001840FF231B02984390600A68502A32D07D
:103400000EDC202A4CD006DC002A49D0102A3BD101
:1034100046E0022070BD302A42D0402A34D137E045
:10342000602A28D0702A12D001200003121A2BD053
:10343000824229D1CB684A688968206800F0BDFEC5
:103440002068816801229203114381601CE0CB68EF
:103450004A688968206800F0B0FE21688868772291
:103460001043886010E0CA684968206801F028F8B5
:103470005021206806E0CA684968206801F031F8E8
:103480006021206800F0A4FE6E770020287770BDD0
:10349000CA684968206801F013F840212068F1E704
:1034A00011462068EEE7000088FFCEFF10B586B019
:1034B000044614216846FCF77AFE0121206889073A
:1034C000884213D10A48416B012211434163406B8A
:1034D000022100911040059000200290039001917C
:1034E0000491052069460007FEF76CFF06B010BD89
:1034F00000100240F8B5064604462036307F0D46DF
:1035000001280CD00120082730770C2A44D008DC91
:10351000002A0BD0042A19D0082A77D12CE00220E7
:10352000F8BD102A4ED0142A70D15BE0206800F05C
:1035300059FE2068816939438161206881690422CC
:1035400091438161206881692A6912E0206800F056
:103550008FFE206881690122D202114381612068B7
:103560008269012189028A438261206881692A690E
:1035700012021143816149E0206800F0BBFE20681F
:10358000C1693943C1612068C16904229143C161A5
:103590002068C1692A6912E0206800F0EFFE206807
:1035A000C1690122D2021143C1612068C2690121AF
:1035B00089028A43C2612068C1692A6912021143E3
:1035C000C16123E0206800F013FF2068416D39439A
:1035D00041652068426D04218A4342652068416D3F
:1035E0002A6911E0206800F035FF2068416D012252
:1035F000D202114341652068416D521091434165EB
:103600002068416D2A69120211434165002030771C
:10361000F8BD70B5040005D025462035687F002828
:1036200002D006E0012070BD00202877204600F07F
:1036300016F802206877211D206800F067FD01223E
:1036400040342272AA77EA7722706270A270E27028
:1036500022716271A271E2716A77002070BD7047B9
:1036600030B504460222203000290ED0042911D0A2
:1036700020464030082912D00C2915D0102918D026
:10368000C378012B1AD0012030BD837F012BFAD1E2
:10369000827714E0C37F012BF5D1C2770FE0037866
:1036A000012BF0D102700AE04378012BEBD142707C
:1036B00005E08378012BE6D1827000E0C270012220
:1036C000206800F06DFD154B20681549984207D021
:1036D000884205D0134A904202D0134A904204D146
:1036E000426C0125ED032A4342642068012298427E
:1036F00007D09307984204D00C4B984201D08842DF
:1037000007D181680A4B1940062905D0DB1F994271
:1037100002D0016811430160002030BD002C01403F
:1037200000400140004401400048014000040040C6
:103730000700010010B5014680310A78012A15D032
:1037400001220A7024224A6002681368146864081F
:10375000640014600122520793430022426600680D
:103760000360202048600A70104610BD022010BD82
:1037700070B5044605468034207801281AD001200F
:103780002070242060602868066802685208520091
:1037900002602868826807235B069A430A438260B6
:1037A000284600F0B1FE28680660202060600020F6
:1037B000207070BD022070BD70B50446054680348F
:1037C0002078012819D0012020702420606028680A
:1037D0000668026852085200026028688268D200B7
:1037E000D2080A438260284600F08EFE28680660F0
:1037F000202060600020207070BD022070BD70B578
:10380000040005D0254680356868002802D006E00F
:10381000012070BD00202870204600F027F82420E9
:10382000686020680168490849000160204600F08E
:1038300045FF0128EDD0A06A002802D0204600F004
:1038400093FE206841680922D202914341602068BA
:1038500081682A2291438160206801680122114316
:103860000160204600F0E6FE70BD000010B586B095
:10387000044614216846FCF79AFC114920688842E6
:103880001CD11048C26B012149040A43C263C26BB8
:103890000A400592426B01210A434263406B029148
:1038A000084005900C200090022001900020039019
:1038B0000491052069460007FEF784FD06B010BD9F
:1038C0000044004000100240FFB507460446803720
:1038D000B86885B00E4620287CD1002E0CD0079801
:1038E000002809D00120A1680003814207D1206986
:1038F000002804D1F00702D0012009B0F0BD3878CB
:10390000012867D0012038700020F8602221B960BA
:10391000E066FEF713FE0490254640350798A8831D
:103920000798E8830121A0680903FF22884204D197
:103930002369002B0BD1284A09E0002817D0012267
:103940001207904218D12269002A13D03F222A84FC
:1039500092B20292884202D1206900280ED00196CC
:103960000026002038700298C0B2039024E023693A
:10397000002BECD07F22EAE70022E8E7002001904C
:10398000EFE708980090002220212046049B00F0D9
:10399000C5FF002801D00320AFE701980028206868
:1039A00012D0416A03980140019801700198401CAF
:1039B0000190E88B401EE883E88B0028E1D12020AD
:1039C000B860002099E705E0406A0299084030801D
:1039D000B61CEEE7022090E7FF010000FFB50646A7
:1039E00004468036706883B00D46202860D1002DD3
:1039F0000CD00598002809D00120A168000381425D
:103A000007D12069002804D1E80702D0012007B0BF
:103A1000F0BD307801284BD0012030700020F060DC
:103A200021207060FEF78AFD0190274640370598F7
:103A3000B8820598F8820120A1680003814202D172
:103A40002069002804D0029500250020307015E080
:103A500000200290F9E700228021204600F05EFF5E
:103A6000002818D10298002817D0216800788862B1
:103A70000298401C0290F88A401EF882F88A019B46
:103A8000002806980090E6D100224021204600F050
:103A900045FF002808D00320B9E728882168C00521
:103AA000C00D8862AD1CE6E7202070600020AEE704
:103AB0000220ACE7FEE701688A69D243920701D48D
:103AC00000228A6200688169C943C90703D08169FD
:103AD0000122114381617047F7B5044600680E4624
:103AE0008069C043C0062BD4202725464035206876
:103AF0008069C043800612D5701CF8D0FEF71EFD09
:103B00000299401AB04201D8002EF0D1606C3843BF
:103B100060646F700020A87028700120FEBD2168CD
:103B20001020C8612068C7612046FFF7C4FF2068E5
:103B30004168044A11404160606C04210843E7E792
:103B40000020FEBD00E800FEF8B504461646154804
:103B50001D46DAB20090079F0023204600F054F87B
:103B60003A462046069900F0B0F8002818D12846B9
:103B7000F5B2012809D02168300A88623A46204609
:103B8000069900F0A2F800280AD120688562009703
:103B9000002240212046069B00F04AF8002800D071
:103BA0000120F8BD00200080F8B5044616461548EF
:103BB0001D46DAB2C3020090079F204600F024F8A9
:103BC0003A462046069900F080F8002818D1284689
:103BD000F5B2012809D02168300A88623A462046A9
:103BE000069900F072F800280AD1206885620097D3
:103BF000002280212046069B00F01AF8002800D001
:103C00000120F8BD00200080F0B50668059C7568AD
:103C1000064F600D384385438805800D1104084325
:103C20001843204305437560F0BD0000FF63FF03A8
:103C3000F8B51D4617460E46044609E0681C07D035
:103C4000FEF77CFC0699401AA8420BD8002D09D03B
:103C500020688169304688430FD00020B842EDD0FB
:103C60000020F8BD616C2020014361644034607025
:103C70000020A07020700120F8BD0120EEE770B593
:103C800016460D4604460FE0324629462046FFF709
:103C900023FF002801D0012070BDFEF74FFC801BE0
:103CA000A84208D8002D06D020688069C04380064D
:103CB000EAD4002070BD616C20200143616440346F
:103CC00060700020A0702070E5E770B516460D46C4
:103CD000044611E0324629462046FFF7FDFE002843
:103CE00001D0012070BD681C06D0FEF727FC801BA8
:103CF000A84208D8002D06D020688069C0438007FC
:103D0000E8D4002070BD616C202001436164403420
:103D100060700020A0702070E3E78068C007C00FCB
:103D2000704780684007C00F7047C0680005800F6B
:103D300001D00020704701207047026807239B05CF
:103D40009A430A430260704710B543690424214036
:103D500007248C40A3438A401343436110BD0000F5
:103D60003EB500241748009401941549029401605F
:103D70008460C460090504614160042141610476E6
:103D800044760125857601462031C5610C70446278
:103D900084620D730463446384630C77C464FDF729
:103DA000FBFD002800D0FEE7019469460548009518
:103DB0000294FDF7D9FC002800D0FEE73EBD0000CC
:103DC000002401401C02002000B589B0242168466F
:103DD000FCF7EDF90D490C4808600846FEF727F995
:103DE000002800D0FEE70020009001900290039090
:103DF0000246049069460548FEF788F8002800D07E
:103E0000FEE709B000BD000000740040740300200C
:103E100008B50848816B012211438163806B104013
:103E20000022009011460920FEF71AFE0920FEF735
:103E30000BFE08BD00100240F0B587B014216846A3
:103E4000FCF7B5F91C48426B04210A434263426BFC
:103E50000A400592416B202421434163416B21407C
:103E60000591416B012529434163416B294005912F
:103E7000416B022631434163406B052730402121CD
:103E80003F070590002249013846FEF751FB009498
:103E9000002401956946384603960294FEF792FA8B
:103EA000A802009002946946019503943846FEF7F3
:103EB00089FA07B0F0BD00000010024010B51248AA
:103EC0001049016011494160002181600161416137
:103ED00081610122C161C2600162FEF77FFB00289F
:103EE00000D0FEE700210848FEF72EFB002800D096
:103EF000FEE700210448FEF74CFB002800D0FEE757
:103F000010BD000000540040880300205B3D3000DD
:103F100010B50A48084901607D21C90141600021AE
:103F20008160C160016141618161FFF70DFA002884
:103F300000D0FEE710BD000000440140DC0200207C
:103F400010B58EB000240794089409940A940B9439
:103F50000C941C2168460D94FCF729F901211C489A
:103F6000890712C0046084606421046141600838DC
:103F7000FFF7EAF9002800D0FEE7012000030790D0
:103F800007A91348FFF726FA002800D0FEE71048DB
:103F9000FFF73FFB002800D0FEE70B940BA90C486D
:103FA0000D94FFF797F9002800D0FEE760200090FD
:103FB000019402940422694604940548FFF79AFA92
:103FC000002800D0FEE70248FFF770FA0EB010BDDF
:103FD0002803002010B5164814490160E121490268
:103FE000416000218160C16001618161C161016244
:103FF0000C22416242618162FFF701FC002800D07F
:10400000FEE700210A48FFF7D7FB002800D0FEE7B3
:1040100000210748FFF7ACFB002800D0FEE704486A
:10402000FFF788FB002800D0FEE710BD00440040E9
:104030008C010020FEE7000010B50446042103486F
:10404000FFF70EFB01208007846310BD28030020CA
:104050007047704710B5FEF79DFCFEF76FFAFCF74E
:10406000F9FB034C0349FCF7B7FB206010BD0000CF
:10407000C4000020CE2F1F4410B5A0B038216846E0
:10408000FCF795F800241B941C941D9434210EA871
:104090001E94FCF78CF801204002FEF7E5FC02209C
:1040A0000090C00103904020059004940794684656
:1040B000FEF7F6FE002800D0FEE707201B901C94B8
:1040C0001D9400211E941BA8FEF7E4FD002800D0DB
:1040D000FEE706480E901094129416940EA8FEF770
:1040E000E9FC002800D0FEE720B010BD224000000F
:1040F00001200249C00688607047000000ED00E022
:104100000148006870470000C4000020F0B5026854
:104110001D4B0124A4071D4D984203D0A04201D09D
:10412000A84203D17026B2434E683243184E194F4D
:1041300098420DD0A0420BD0A84209D0164CA04204
:1041400006D0B04204D0B84202D0144CA04204D1F0
:1041500003242402A243CC6822438024A2434C6956
:10416000224302608A68C2620A688262984206D06C
:10417000B04204D0B84202D0084A904201D1096945
:10418000016301214161F0BD002C014000040040A9
:104190000040014000440140002000400048014030
:1041A00010B5CB06DB0E0121046A99408C430462F2
:1041B000016A9A401143016210BD30B58468FF2541
:1041C0002D021B021343AC430B432343836030BDDA
:1041D0008268034B1A400A4307210A4382607047F2
:1041E0008FFFCFFFF0B5026A520852000262056AE3
:1041F00043688269194C1B4E224092080C68920059
:104200001443022295438A682A43154DA84207D0D9
:10421000B04205D0144FB84202D0144FB84206D174
:104220000827BA43CF681743042297433A46A84267
:1042300007D0B04205D00C4DA84202D00B4DA84289
:1042400006D103252D02AB434D691D438B692B43DA
:1042500043608461496841630262F0BD8FFFFEFFE5
:10426000002C014000400140004401400048014052
:1042700070B5026A10239A430262046A4368826935
:10428000174D2A4003252D02AA430D682D02154320
:10429000202294438A6812012243124CA04207D183
:1042A0008024A243CC68402624012243B24308E084
:1042B0000D4CA04205D00D4CA04202D00C4CA042A7
:1042C00008D10324A402A3434C69A4001C438B69B6
:1042D0009B0023434360856149688163026270BD2E
:1042E000FF8FFFFE002C01400040014000440140D0
:1042F0000048014070B5026AFF2301339A4302620D
:10430000046A4368C269184D2A4092080D689200F9
:1043100015430122520294438A6812022243134C2D
:10432000A04208D11446CA68C614B44312022243FC
:104330000415A24308E00E4CA04205D00D4CA0424B
:1043400002D00D4CA04208D103242403A3434C699E
:1043500024011C438B691B0123434360C5614968E9
:10436000C163026270BD00008FFFFEFF002C0140A0
:1043700000400140004401400048014030B5026A5D
:1043800001231B039A430262046A4368C269134D06
:104390002A4003252D02AA430D682D021543012250
:1043A000520394438A68120322430D4CA04208D062
:1043B0000C4CA04205D00C4CA04202D00B4CA042A9
:1043C00005D10124A403A3434C69A4012343436002
:1043D000C56149680164026230BD0000FF8FFFFEC5
:1043E000002C0140004001400044014000480140D1
:1043F00070B5026A01263604B2430262046A42685A
:10440000436D0F4D2B400D681D4373009C430B897A
:104410001B0423430B4CA04208D00B4CA04205D0F8
:104420000A4CA04202D00A4CA04203D14C69B243CC
:10443000240222434260456549688165036270BD7C
:104440008FFFFEFF002C014000400140004401406E
:104450000048014030B5026A01231B059A430262FD
:10446000046A4268436D114D2B400D682D021D43B7
:1044700001235B059C430B891B0523430C4CA04285
:1044800008D00C4CA04205D00B4CA04202D00B4CE3
:10449000A04205D10124A404A2434C69A4022243F2
:1044A000426045654968C165036230BDFF8FFFFE0C
:1044B000002C014000400140004401400048014000
:1044C00030B5036A046A6408640004628469F025F4
:1044D000AC43120122430A24A3430B4382610362CB
:1044E00030BD30B5036A1024A34303628469036AB4
:1044F0000F252D031203AC432243A024A34309013B
:1045000019438261016230BDF0B513A106C985B0BF
:104510000192009112A206CA039202910446416ED2
:104520004034002915D000688168806809014D0F6A
:10453000400F02AE315C6F46385CC000FBF7D8FD1F
:104540006085785D715DC000FBF7D2FD208505B008
:10455000F0BD01206085F9E70101010307010000BA
:10456000080402040801010110B5018DC90707D034
:1045700001684A6801235B049A43C36A1A434A608C
:10458000018D890707D501684A6801231B049A43F6
:10459000036B1A434A60018D490707D501684A68D1
:1045A00001239B049A43436B1A434A60018D090718
:1045B00007D501684A680123DB039A43836B1A43DA
:1045C0004A60018DC90607D50268916801231B0363
:1045D0009943C36B19439160018D890607D5016822
:1045E0008A6801235B039A43036C1A438A60018D36
:1045F000490612D503685A6801210905446C8A43AB
:1046000022435A60426C8A4207D1026851680323F0
:104610005B059943836C19435160018D090607D5E9
:1046200001684A680123DB04C06C9A4302434A6074
:1046300010BD0000FEB50546002680350446EE603C
:10464000FDF77CFF019020680068124F000709D534
:1046500001210097002249052046019B00F05EF9E8
:1046600000280DD12068006840070BD50121009774
:10467000002289052046019B00F050F9002801D056
:104680000320FEBD20206860A860E6662E70002032
:10469000FEBD0000FFFFFF0113460A4610B50146AC
:1046A0000548FFF711F9040003D005210807FDF7BD
:1046B00037FF204610BD00008C010020F8B50446ED
:1046C0002269A168E5691143626900262A43114302
:1046D000626E00680A437C4B01687C4D294011439F
:1046E000016020684168032212039143E26811438C
:1046F00041602168A069994201D0226A10438A680A
:10470000734D2A4002438A602068C16A626A0909BF
:1047100009011143C1626F4922686F488A420AD178
:1047200040698007800F1AD001283DD0022839D077
:10473000032827D124E069498A420AD140690C2123
:1047400008400CD004282FD008282BD00C2819D1D1
:1047500016E063498A4202D062498A4201D10021AF
:1047600011E09A420ED141690320800201400AD033
:1047700001208002091A17D0091A13D0814201D1F1
:10478000082100E010210120574D584FC0039A42E4
:104790003BD100290AD0022911D0042909D00829C7
:1047A0007ED10BE00221EEE70421ECE7FEF71EFBD1
:1047B00001E0FEF72FFB050001D17AE00546606AB3
:1047C0004000395A28460091FBF792FC676879004F
:1047D0007918814269D83903814266D3002328467B
:1047E0001946009AFBF79AFC020E090203027808A8
:1047F00011431818002251413A460023FBF78EFC62
:1048000003210902411A3A4A4DE0E269824228D165
:10481000002906D0022907D0042907D0082944D14D
:1048200008E0FEF7E3FA03E0284603E0FEF7F2FAB9
:1048300000283ED0616A4900795AFBF759FC61684B
:1048400040004A088018FBF753FC80B20246294911
:10485000103A8A4229D8491C01400007400F0843FA
:1048600025E0002906D0022907D0042907D008290D
:104870001BD108E0FEF7BAFA03E0284603E0FEF792
:10488000C9FA002815D0616A4900795AFBF730FC53
:1048900061684A088018FBF72BFC80B2014600E0F3
:1048A00003E0144A1039914201D9012601E0216840
:1048B000C8602046012140304185018500202067E5
:1048C00060673046F8BD000000800040F369FFCF0C
:1048D000FFF4FF1100380140401002400044004046
:1048E00000480040004C00400024F400045A000836
:1048F000FFFC0F00EFFF000013460A4610B501460B
:104900000548FFF76BF8040003D005210807FDF701
:1049100007FE204610BD00008C010020FFB581B0CD
:1049200005460F46044680350A9E38E0701C36D096
:10493000FDF704FE0499401AB04221D8002E1FD082
:104940002068016849072AD5C069C043000526D4FC
:1049500001202168C002086220680168FF22A1329C
:1049600091430160206881684908490081602020E6
:104970006860A860E86000202870032005B0F0BDE2
:1049800020680168FF22A13291430160206881689C
:1049900049084900816020206860A860EBE7206832
:1049A000C1693846884305D0002103988142BDD0B3
:1049B0000020E3E70121F8E70FB410B504A9074B85
:1049C00002AA039800F028F9044602A9002000F08A
:1049D000C1FC204610BC08BC04B018475553000861
:1049E0002021020C01D010211046020A01D01046ED
:1049F0000839020901D01046091F820801D010466B
:104A0000891E420801D0881E7047081A704730B4CA
:104A10007446641E2578641CAB4200D21D46635D5B
:104A20005B00E31830BC18478307FF22DB0E9A4077
:104A30008907090E9940002808DB830809489B0074
:104A40001B18186890430843186070470007000F50
:104A50000838830804489B001B18D8699043084312
:104A6000D861704700E400E000ED00E000487047C6
:104A7000E400002002E008C8121F08C1002AFAD191
:104A800070477047002001E001C1121F002AFBD1CE
:104A900070470000F0B51FB486B00998089A030D5E
:104AA0000021024314D05148514A181850430514AC
:104AB0001198012810981AD0281A401C00264D4F32
:104AC0004D49009601910490002812DA444211E009
:104AD0001198012449A3012801D11098C1430698D7
:104AE000119A84600360C26041600BB0F0BD404227
:104AF000E4E70446210500203F4A001C5141039190
:104B0000029012E0E00707D032463B460199009838
:104B1000FCF7A2F80191009032463B461046194638
:104B2000FCF79AF806460F466410002CEAD1049868
:104B3000039B0028029A0999089806DAFCF78CF87A
:104B4000019B009AFCF788F805E0FCF7EDF8019B63
:104B5000009AFCF7E9F804460E460022284BFCF7C1
:104B600089F903D80020C043014607E00022254B05
:104B700020463146FBF7BCFFFCF75CF9102409E046
:104B8000002C0ADB0A220023FBF7C8FA079B30320D
:104B90001A55641E02460A43F2D11122641C079B77
:104BA000121B1C19119B012B03D0012308430ED1AA
:104BB0000AE0084304D0112010900020119077E7FC
:104BC0001098151A6D1E0BE01098824202DD00232A
:104BD0006D1C03E0824201DA00236D1E002BEED033
:104BE000069811998260C16030C07EE701FCFFFF2A
:104BF000104D0000000014400000F03F30000000A5
:104C00000000F0430000E03F30380A2801D20120C4
:104C10007047002070470000FFB597B0064600259A
:104C20001BE2252876D100242746F749049400E0AA
:104C30000443761C32780120203A90400842F7D194
:104C400030782A280ED002223078014630390929DE
:104C500016D804990A235943303940181443761C56
:104C60000490F1E7189802C804911890002904DA1A
:104C70000120400304434842049002200443761C70
:104C800030782E2814D1042004437078761C2A280A
:104C900009D11898761C80C8189009E00A214F4362
:104CA000303FC719761C3078014630390929F5D9CB
:104CB00030786C2810D006DC4C281AD068280ED02A
:104CC0006A2817D104E0742813D07A2812D110E092
:104CD0000120400504430CE00121090501E0032106
:104CE00009050C437178814203D101200005241885
:104CF000761C761C307866280BD013DC58287DD0C3
:104D000009DC00287BD04528F6D04628F4D0472877
:104D10001AD1A9E118E0632835D0642870D065283D
:104D200012D1A1E170286CD008DC6728F1D0692885
:104D30007DD06E280DD06F2806D1BCE073282ED010
:104D4000752873D0782859D01A9A199990476D1CF4
:104D500082E16002400F022809D003280DD0042808
:104D6000189801680DD00D60001D189074E1189816
:104D7000EA1701680D604A60F6E7189801680D802F
:104D8000F2E70D70F0E718986A4601781172001D7D
:104D900018900020507202A80090012005E0189899
:104DA00002C8189000200091C04361070ED5002171
:104DB00001E00199491C0191B94213DA8142F8DB03
:104DC000019A0099895C0029F3D10BE0002101E0F0
:104DD0000199491C01918142FADB019A0099895C91
:104DE0000029F5D1019904981A9B471A21463846A3
:104DF000199A00F099FA4019019903E051E030E165
:104E000015E050E0451807E0009800990078491C2B
:104E100000911A9A199990470198401E0190401CE0
:104E2000F2D1214638461A9B199A12E137E00A203E
:104E30000021009001916002410F022907D0189AC9
:104E400001CA1892C2179446032908D00AE018989C
:104E5000C01DC108C90005C91891944607E000B2F9
:104E6000C2179446042902D140B2C1178C460022D1
:104E70006146944506DA0A460021404291418C463B
:104E80002D2102E0210504D52B216A461173012151
:104E900003E0E10701D02021F7E7029156E00A2064
:104EA0000AE0102008E010200090002104200443B4
:104EB0000191082703E00820002101910090600281
:104EC000410F022907D0189A01CA1892002294466D
:104ED000032908D008E01898C01DC108C90005C9F9
:104EE0001891944603E080B2042900D1C0B2002199
:104EF000029121072AD531780D91702906D0009AA8
:104F00001021019B4A401A4305D00EE040216A4619
:104F10001173012108E06146014306D030216A4641
:104F200011730D99517302210291009A0821019B7E
:104F30004A401A430AD16146014301D1610705D5B0
:104F400030216A46117301217F1E02913178582960
:104F500004D02EA10E910DA90D910DE030A1F9E71D
:104F60006146019B009AFBF7D9F80E9B8C469B5C2F
:104F70000D9A521E0D92137061460143F0D10D98A7
:104F800005A9081A20300190600703D5012000040C
:104F9000844300E001270198874201DD381A00E0D0
:104FA0000020019900904118029809180498401AAD
:104FB0000490E00306D421461A9B199A049800F045
:104FC000B3F94519002706E003A81A9AC05D19999C
:104FD00090476D1C7F1C02988742F5DBE0030CD5DF
:104FE00021461A9B199A049800F09EF9451904E08D
:104FF0001A9A3020199990476D1C0099481E00900C
:105000000029F5DC1FE000000928010030313233AF
:1050100034353637383961626364656600000000F4
:1050200030313233343536373839414243444546DE
:10503000000000000D980D990078491C0D911A9AF6
:10504000199990476D1C0199481E01900029F1DCC7
:105050004DE100F059F94519761C3078002800D050
:10506000DFE528461BB0F0BD600700D4062718987E
:10507000C01DC108C90048680A680831C30FDB07B2
:105080001891190001D09CA108E0210501D59BA130
:1050900004E0E10701D09AA100E09AA14300109139
:1050A00030785B0865280CD006DC452809D04628F6
:1050B0001DD0472841D141E0662818D067283CD14F
:1050C0003CE00021112F01DB112000E0781C019150
:1050D000009008A911A8FFF7DDFC139905910021A4
:1050E000119A15927F1C12980197009150E00120AF
:1050F000C00703900120019008A9009711A8FFF7AD
:10510000C9FC139A149905920022119B00921298DF
:105110001593059A0192002901D0104602E0791CEE
:1051200040180190381A01D5019804E04042401E11
:105130000090781C0190C01B029043E0012F00DA20
:1051400001270021112F01DD112000E038460191D7
:10515000009008A911A8FFF79DFC13990591119AD9
:105160000021129815920091019721070CD40599FE
:10517000B94201DB019900E00191012904DD159A92
:10518000491E515C302906D0B84201DA011D05DA0A
:105190000121029115E00199491EEDE7002805DC87
:1051A0000099411800910199091A03E0019A411CE4
:1051B000914200DD01910099401A401C02900120AB
:1051C000C0070390200706D402990198814202DBB0
:1051D0000020C043029000206946C87707AF012134
:1051E00003980337C907884224D0022011902B204E
:1051F0001290039800280CDA404203902D20129060
:1052000007E00A210398FAF773FF30317F1E0390FD
:1052100039701199481E11900029F2DC039800287A
:10522000EFD1791E1298087030782021084045305F
:10523000BF1E387006A8C01BC01D039010980078D0
:10524000002800D00120019941180298C0170918C0
:10525000039809180498401A401E0490E00306D4ED
:1052600021461A9B199A049800F05EF84519109887
:105270000078002803D01A9A199990476D1CE00312
:1052800024D521461A9B199A049800F04DF8451927
:105290001CE00098002807DB00990598884203DD90
:1052A0001598405C199901E0199930201A9A904795
:1052B00000986D1C401C00900298401E029000282F
:1052C00004D11A9A2E20199990476D1C0199481EF5
:1052D00001900029DDDC05E038781A9A7F1C1999C5
:1052E00090476D1C0399481E03900029F4DC214669
:1052F0001A9B199A0498ACE62D0000002B000000C0
:105300002000000000000000F8B5044600251E46FD
:105310001746880404D405E039462020B0476D1CA8
:10532000641EF9D52846F8BDFFB50446002581B0B6
:105330001E46C80301D5302700E02027880404D585
:1053400005E038460399B0476D1C641EF9D5284620
:1053500005B0F0BD0A68531C0B6010707047000068
:1053600010B5154C002020560300FFF750FB09062E
:10537000090C0F1215181B1E200000F029FB16E067
:1053800000F05AFA13E000F09DF910E000F02AFA5C
:105390000DE000F0DFF90AE000F06CFA07E000F041
:1053A000A7F904E000F096FA01E000F08FF8002081
:1053B000C043207010BD00000000002010B5002880
:1053C00023D0124B0022001F196803E0814203D84A
:1053D0000A4649680029F9D1002A0AD01368841ABC
:1053E0009C4204D1006818181060104602E050601A
:1053F00000E01860002907D002680B1A934203D11D
:105400000B68D21802604968416010BDDC000020C2
:1054100000F09CFA00F00AF9FFF7A2FFFAE700009B
:10542000F0B50B30C108C900144F0026144A0FE034
:1054300003688B420BD38B4205D95C1A431845682D
:1054400030C3083B00E04368136002C004E0021D63
:1054500010680028ECD13046002803D138680028B5
:1054600001D00020F0BD064A06481060064A121A14
:10547000D208D20044C001203860D7E7E000002005
:10548000DC000020DC030020D80500203EB500240D
:10549000E4436D461CC54004000C0A460146022345
:1054A0000148FDF7F5F83EBD880300203EB5002415
:1054B000E4436D461CC54004000C0A460146022325
:1054C0000148FDF78FF93EBD88030020F8B5502054
:1054D0000090002739A13B48FAF77BFE00280BD04B
:1054E00039A13848FAF775FE002836D00A220D2176
:1054F00037A0FFF701FAF8BD0A220C2138A0FFF708
:10550000FBF930481430FAF75DFE0546FFF788FFD7
:105510002C4904461431FFF74FFAABB22246394604
:105520000098FFF7C3FF2748224631A12830FFF734
:1055300043FA24482830FAF745FE81B221480A226E
:105540002830FFF7D9F93448FAF73CFE81B20A2235
:105550003148FFF7D1F920462CE00A220C212FA078
:10556000FFF7CAF917481430FBF7ECF80446FFF7C9
:1055700057FF05462046FFF753FF0646A3B22A46CB
:1055800039460098FFF782FF224629463046FAF74F
:10559000F5FDA1B20A223046FFF7AEF91E48FAF730
:1055A00011FE81B20A221C48FFF7A6F93046FFF728
:1055B00005FF2846FFF702FFF8BD00007772697407
:1055C00065000000FD0000207265616400000000BD
:1055D00057726F6E6720636F6D6D616E64000000BF
:1055E00057726974696E672E2E2E0A0D0000000036
:1055F00057726974696E6720697320636F6D706C90
:105600006574652E20596F752077726F74653A2026
:1056100025730A0D0000000001000020526561643E
:10562000696E672E2E2E0A0D0000000030B587B07F
:105630000024642214216846FFF72EF81DA1684655
:105640000FE0002C04D0012C04D0022C06D125E060
:105650001A4801E019481530FAF7C9FD15A10020D4
:10566000641CFAF7CDFD0100EBD1154C2070251D0F
:1056700068460078002814D00020205615214843A1
:1056800040190E49FAF7A5FD00280ED02078401CDD
:1056900040B220700928EBDB07B030BD0748293045
:1056A000DAE70020C0432070F6E718216846FAF7D1
:1056B0007EFDF1E720090A0D00000000E80000204F
:1056C0000000002010B50848FAF77CFD81B20A22DC
:1056D0000548FFF711F90548FAF774FD81B20A226F
:1056E0000248FFF709F910BDFD000020010000206D
:1056F00008B56A4612A11348FAF7A6FD0098FEF70E
:105700009BFC104810A12830009AFFF755F90D486E
:105710002830FAF757FD81B20A480A222830FFF7ED
:10572000EBF80B48FAF74EFD81B20A220848FFF762
:10573000E3F8044864212830FAF739FD08BD000079
:1057400025750000FD0000202575252500000000BE
:1057500001000020F0B58BB01C48FAF7F3FF0546B6
:1057600001466846FBF7B8FE0A20FCF719FE002444
:105770006E46671E1FE0FBF75FFFA000335813481B
:10578000621C13A12830FFF717F910482830FAF7E8
:1057900019FD81B20D483A462830FFF7ADF81048A0
:1057A000FAF710FD81B20A220D48FFF7A5F80A208A
:1057B000FCF7F6FD641CAC42DDD3044864212830BC
:1057C000FAF7F5FCFBF792FE0BB0F0BDFD000020F0
:1057D00056616C75652325643A2025640A0D000026
:1057E0000100002010B50A20FBF712FF0A20FBF78A
:1057F0000FFF02460CA10E48FFF7DEF80C48FAF73F
:10580000E1FC81B20022D2430948FFF775F809484C
:10581000FAF7D8FC81B20A220648FFF76DF8642136
:105820000348FAF7C4FC10BD25640D0A000000000F
:10583000250100200100002070B50D4E0024152028
:10584000604385192846FAF7BDFC81B228460A2232
:10585000FFF752F80648C01EFAF7B4FC81B20448BC
:105860000A22C01EFFF748F8641C092CE7DB70BD54
:105870000400002010B5FEF743FCFBF706F80246D3
:105880000B460AA11148FFF797F81048FAF79AFC5F
:1058900081B264220D48FFF72FF80D48FAF792FC09
:1058A00081B20A220A48FFF727F810BD50726F67CD
:1058B00072616D2069732072756E6E696E67202546
:1058C0002E3066207365636F6E64730025010020BF
:1058D0000100002008B56A4615A11648FAF7B4FC85
:1058E000FBF7D8FE0098FBF7B7FEFBF7ADFE0246CC
:1058F000104811A12830FFF75FF80E482830FAF75A
:1059000061FC81B20B480A222830FEF7F5FF0E48F1
:10591000FAF758FC81B20A220B48FEF7EDFF054862
:1059200064212830FAF743FCFBF7BCFE08BD0000F9
:1059300025660000FD0000204441432076616C751F
:10594000653A2564000000000100002000B58FB01A
:10595000FDF728F8FEF790FBFEF76EFAFEF758FA0F
:10596000FEF7FEF9FEF736FBFEF7D2FAFEF7E8FA8D
:10597000FEF72AFAFEF7A2FA382207A16846FAF7DC
:10598000FDFB6846FAF71EFC81B20A226846FEF764
:10599000B3FF0FB000BD00004772656574696E67A4
:1059A000732C20656E746572202268656C702220ED
:1059B000746F2073656520746865206C697374204A
:1059C0006F6620636F6D6D616E64730D0A00000079
:1059D00070B50B48FAF7F6FB81B20A220848FEF7C9
:1059E0008BFF002405252D0720212846FCF798FD74
:1059F0000A20FCF7D5FCA41C0A2CF5DB70BD0000C6
:105A000001000020010002000400060008000A0056
:105A10000C00100020004000800000010000000089
:105A20000000000000000000000000000000000076
:105A30000000000000000000000000000100000065
:105A40000200000003000000040000000600000047
:105A5000070000000800000009000000000000002E
:105A60000000000000000000000000000100000035
:105A7000020000000300000004000000004040405D
:105A80004040404040404141414141404040404011
:105A900040404040404040404040404040050202BD
:105AA000020202020202020202020202022020207C
:105AB00020202020202020020202020202029090D8
:105AC00090909090101010101010101010101010D6
:105AD000101010101010101002020202020288882A
